:020000040000FA
:04000000F8EF0EF017
:1006000000010204004F7061206561652076656914
:1006100020626C7A2C20626F7261206972206E7584
:100620006D20636875727261733F00342D54657379
:100630007465204D656E736167656D00332D54657B
:10064000737465204C6967617200526D743A20467C
:1006500065695F4A613100456E766961722070613B
:1006600072613A00322D4D656E736167656D00529F
:100670006563757361646100526563656269646195
:10068000004174656E6469646100456E76696164F9
:1006900061004368616D616461004C6967616E640B
:1006A0006F00312D4C696761720046696D2064618D
:1006B0000000010E1AEC10F00F0E1AEC10F0000EF4
:1006C000636E000E656E000E626E000E666E94CF55
:1006D00053F0000E076E000E066E8AEC09F0676E8E
:1006E000000E646EBBEF05F0000E686E000E68240D
:1006F000D96EDA6A010EDA22DF5005EC10F065C01F
:1007000006F06350CEEC0DF0030E076EE80E066E99
:100710008AEC09F0676E642A6704D8A492EF03F0AC
:1007200094EF03F0A1EF03F0682A6804D8A49BEFCC
:1007300003F09DEF03F09FEF03F0000E686E000ED4
:10074000646E020E6464A7EF03F0A9EF03F076EF86
:1007500003F0000E6824D96EDA6A010EDA22130E55
:100760006224E16EE26A000EE222DFCFE7FF622A36
:10077000652AF0EF05F0010E686E000E6824D96E50
:10078000DA6A010EDA22DF5005EC10F065C006F0DF
:100790006350CEEC0DF0030E076EE80E066E8AEC89
:1007A00009F0676E642A020E6718D8A4DAEF03F026
:1007B000DCEF03F0EAEF03F0682A080E6818D8A40B
:1007C000E4EF03F0E6EF03F0E8EF03F0010E686EEC
:1007D000000E646E020E6464F0EF03F0F2EF03F0BB
:1007E000BDEF03F0A9EF03F0080E686E000E682459
:1007F000D96EDA6A010EDA22DF5005EC10F065C01E
:1008000006F06350CEEC0DF0030E076EE80E066E98
:100810008AEC09F0676E642A030E6718D8A413EFF8
:1008200004F015EF04F023EF04F0682A0F0E6818A7
:10083000D8A41DEF04F01FEF04F021EF04F0080E20
:10084000686E000E646E020E646429EF04F02BEFF4
:1008500004F0F6EF03F0A9EF03F00F0E686E000E40
:100860006824D96EDA6A010EDA22DF5005EC10F046
:1008700065C006F06350CEEC0DF0030E076EE80E77
:10088000066E8AEC09F0676E642A040E6718D8A415
:100890004CEF04F04EEF04F05CEF04F0682A160E03
:1008A0006818D8A456EF04F058EF04F05AEF04F09B
:1008B0000F0E686E000E646E020E646462EF04F048
:1008C00064EF04F02FEF04F0A9EF03F0160E686E4A
:1008D000000E6824D96EDA6A010EDA22DF5005ECC8
:1008E00010F065C006F06350CEEC0DF0030E076EFD
:1008F000E80E066E8AEC09F0676E642A050E67182A
:10090000D8A485EF04F087EF04F095EF04F0682A8F
:100910001D0E6818D8A48FEF04F091EF04F093EF48
:1009200004F0160E686E000E646E020E64649BEF97
:1009300004F09DEF04F068EF04F0A9EF03F01D0E42
:10094000686E000E6824D96EDA6A010EDA22DF5072
:1009500005EC10F065C006F06350CEEC0DF0030E10
:10096000076EE80E066E8AEC09F0676E642A060EC2
:100970006718D8A4BEEF04F0C0EF04F0CEEF04F087
:10098000682A240E6818D8A4C8EF04F0CAEF04F04F
:10099000CCEF04F01D0E686E000E646E020E6464EF
:1009A000D4EF04F0D6EF04F0A1EF04F0A9EF03F0C8
:1009B000240E686E000E6824D96EDA6A010EDA22FF
:1009C000DF5005EC10F065C006F06350CEEC0DF082
:1009D000030E076EE80E066E8AEC09F0676E642A55
:1009E000070E6718D8A4F7EF04F0F9EF04F007EF4B
:1009F00005F0682A2D0E6818D8A401EF05F003EF62
:100A000005F005EF05F0240E686E000E646E020E10
:100A100064640DEF05F00FEF05F0DAEF04F0A9EFD5
:100A200003F02D0E686E000E6824D96EDA6A010E8E
:100A3000DA22DF5005EC10F065C006F06350CEEC12
:100A40000DF0030E076EE80E066E8AEC09F0676E75
:100A5000642A080E6718D8A430EF05F032EF05F0CD
:100A600040EF05F0682A340E6818D8A43AEF05F074
:100A70003CEF05F03EEF05F02D0E686E000E646E43
:100A8000020E646446EF05F048EF05F013EF05F041
:100A9000A9EF03F0340E686E000E6824D96EDA6A8E
:100AA000010EDA22DF5005EC10F065C006F063504D
:100AB000CEEC0DF0030E076EE80E066E8AEC09F020
:100AC000676E642A090E6718D8A469EF05F06BEF0A
:100AD00005F079EF05F0682A3D0E6818D8A473EF89
:100AE00005F075EF05F077EF05F0340E686E000E37
:100AF000646E020E64647FEF05F081EF05F04CEF49
:100B000005F0A9EF03F03D0E686E000E6824D96E63
:100B1000DA6A010EDA22DF5005EC10F065C006F04B
:100B20006350CEEC0DF0030E076EE80E066E8AECF5
:100B300009F0676E642A6750D8A4A1EF05F0A3EF0F
:100B400005F0B1EF05F0682A410E6818D8A4ABEFA4
:100B500005F0ADEF05F0AFEF05F03D0E686E000E4D
:100B6000646E020E6464B7EF05F0B9EF05F085EF2F
:100B700005F0A9EF03F06750116E126A1250000AD7
:100B8000D8B4C5EF05F0F0EF05F01150000AD8B465
:100B900083EF05F0010AD8B474EF03F0030AD8B468
:100BA000BBEF03F0010AD8B4F4EF03F0070AD8B49E
:100BB0002DEF04F0010AD8B466EF04F0030AD8B4AC
:100BC0009FEF04F0010AD8B4D8EF04F00F0AD8B4AC
:100BD00011EF05F0010AD8B44AEF05F0F0EF05F087
:100BE0000C0E6718D8A4F7EF05F0F9EF05F0FBEF4E
:100BF00005F041EF06F00A0E6718D8A402EF06F0E0
:100C000004EF06F02EEF06F06350D8B40AEF06F0BA
:100C10000CEF06F017EF06F06550D8A412EF06F0BF
:100C200014EF06F017EF06F0100E656E63066550C0
:100C3000D8B41DEF06F01FEF06F02EEF06F06506A4
:100C400065C006F06350CEEC0DF0200E05EC10F000
:100C500065C006F06350CEEC0DF06206100E65180C
:100C6000D8A435EF06F037EF06F03AEF06F0632A26
:100C7000000E656E65C006F06350CEEC0DF069EFB6
:100C800003F0010E1AEC10F0000E066E010ECEEC11
:100C90000DF0570E0A6E060E0B6ED3EC0CF0000E24
:100CA000066E020ECEEC0DF0000E076E000E066E04
:100CB0008AEC09F0676E28EF07F0550E6624D96EAE
:100CC000DA6A000EDA226750300FDF6E550E6624A6
:100CD000D96EDA6A000EDA22DF5005EC10F0662ACF
:100CE0005DEF07F0550E6624D96EDA6A000EDA223F
:100CF0006750300FDF6E550E6624D96EDA6A000E2B
:100D0000DA22DF5005EC10F06FEF06F0550E662486
:100D1000D96EDA6A000EDA226750300FDF6E550E98
:100D20006624D96EDA6A000EDA22DF5005EC10F084
:100D30006FEF06F0550E6624D96EDA6A000EDA22DD
:100D40006750300FDF6E550E6624D96EDA6A000EDA
:100D5000DA22DF5005EC10F06FEF06F0550E662436
:100D6000D96EDA6A000EDA226750300FDF6E550E48
:100D70006624D96EDA6A000EDA22DF5005EC10F034
:100D80006FEF06F0550E6624D96EDA6A000EDA228D
:100D90006750300FDF6E550E6624D96EDA6A000E8A
:100DA000DA22DF5005EC10F06FEF06F0550E6624E6
:100DB000D96EDA6A000EDA226750300FDF6E550EF8
:100DC0006624D96EDA6A000EDA22DF5005EC10F0E4
:100DD0006FEF06F0550E6624D96EDA6A000EDA223D
:100DE0006750300FDF6E550E6624D96EDA6A000E3A
:100DF000DA22DF5005EC10F0662A000E646E5DEF1B
:100E000007F0550E6624D96EDA6A000EDA226750B2
:100E1000300FDF6E550E6624D96EDA6A000EDA22C4
:100E2000DF5005EC10F06FEF06F0550E6624D96E1A
:100E3000DA6A000EDA22300EDF6E550E6624D96EA5
:100E4000DA6A000EDA22DF5005EC10F06FEF06F0E0
:100E50006750116E126A1250000AD8B432EF07F0D0
:100E60005DEF07F01150000AD8B415EF07F0010A42
:100E7000D8B45DEF06F0030AD8B472EF06F0010AA9
:100E8000D8B486EF06F0070AD8B49AEF06F0010A44
:100E9000D8B4AEEF06F0030AD8B4C2EF06F0010AE8
:100EA000D8B4D6EF06F00F0AD8B4EAEF06F0010A7C
:100EB000D8B401EF07F05DEF07F00C0E6718D8A467
:100EC00064EF07F066EF07F054EF06F0000E946E43
:100ED000010E826E010E1AEC10F0020EB7EC0EF04D
:100EE000050E066E010ECEEC0DF0330E0A6E060EE8
:100EF0000B6ED3EC0CF0050E066E020ECEEC0DF070
:100F00008A0E0A6E060E0B6ED3EC0CF0050E066E02
:100F1000030ECEEC0DF0000E616E99EF07F0550E4A
:100F20006124D96EDA6A000EDA22DF5005EC10F087
:100F3000612A6650615CD8A0A0EF07F0A2EF07F02D
:100F40008FEF07F0030E026EE80E016EE6EC0FF075
:100F5000000E826E53C094FF120094CF13F0010E66
:100F60001AEC10F00F0E1AEC10F0000E066E010EC7
:100F7000CEEC0DF0010E226E000E146E000E156EFA
:100F8000000E256E000E076E000E066E8AEC09F04C
:100F9000246E96EF08F0160E2524D96EDA6A000E3C
:100FA000DA222450300FDF6E160E2524D96EDA6A4D
:100FB000000EDA22DF5005EC10F0252ACBEF08F006
:100FC000160E2524D96EDA6A000EDA222450300F6C
:100FD000DF6E160E2524D96EDA6A000EDA22DF5093
:100FE00005EC10F0DDEF07F0160E2524D96EDA6A55
:100FF000000EDA222450300FDF6E160E2524D96E33
:10100000DA6A000EDA22DF5005EC10F0DDEF07F0AF
:10101000160E2524D96EDA6A000EDA222450300F1B
:10102000DF6E160E2524D96EDA6A000EDA22DF5042
:1010300005EC10F0DDEF07F0160E2524D96EDA6A04
:10104000000EDA222450300FDF6E160E2524D96EE2
:10105000DA6A000EDA22DF5005EC10F0DDEF07F05F
:10106000160E2524D96EDA6A000EDA222450300FCB
:10107000DF6E160E2524D96EDA6A000EDA22DF50F2
:1010800005EC10F0DDEF07F0160E2524D96EDA6AB4
:10109000000EDA222450300FDF6E160E2524D96E92
:1010A000DA6A000EDA22DF5005EC10F0DDEF07F00F
:1010B000160E2524D96EDA6A000EDA222450300F7B
:1010C000DF6E160E2524D96EDA6A000EDA22DF50A2
:1010D00005EC10F0252A000E156ECBEF08F0160E69
:1010E0002524D96EDA6A000EDA222450300FDF6E22
:1010F000160E2524D96EDA6A000EDA22DF5005ECCE
:1011000010F0DDEF07F0160E2524D96EDA6A000E16
:10111000DA22300EDF6E160E2524D96EDA6A000E42
:10112000DA22DF5005EC10F0DDEF07F02450116EED
:10113000126A1250000AD8B4A0EF08F0CBEF08F002
:101140001150000AD8B483EF08F0010AD8B4CBEFED
:1011500007F0030AD8B4E0EF07F0010AD8B4F4EFBF
:1011600007F0070AD8B408EF08F0010AD8B41CEF5A
:1011700008F0030AD8B430EF08F0010AD8B444EFFD
:1011800008F00F0AD8B458EF08F0010AD8B46FEF8E
:1011900008F0CBEF08F00C0E2418D8A4D2EF08F01A
:1011A000D4EF08F0D8EF08F0010E146EE1EF08F06C
:1011B0000A0E2418D8A4DFEF08F0E1EF08F0C2EF20
:1011C00007F00C0E1AEC10F0010E826E1450D8B419
:1011D000ECEF08F0EEEF08F085EF09F0010E1AECE5
:1011E00010F0010EB7EC0EF0050E066E010ECEECFF
:1011F0000DF09A0E0A6E060E0B6ED3EC0CF0050E77
:10120000066E020ECEEC0DF0000E236E12EF09F00A
:10121000160E2324D96EDA6A000EDA22DF5005ECAE
:1012200010F0232A2550235CD8A019EF09F01BEFFA
:1012300009F008EF09F02250D8B421EF09F023EFAC
:1012400009F029EF09F0020E946E000E226E2DEFC8
:1012500009F0000E946E010E226E030E076EE80E6A
:10126000066E8AEC09F0246E152A0B0E15603BEF12
:1012700009F03DEF09F046EF09F00A0E2418D8A452
:1012800044EF09F046EF09F01BEF09F0010E1AECEC
:1012900010F0010EB7EC0EF0050E066E010ECEEC4E
:1012A0000DF0AA0E0A6E060E0B6ED3EC0CF0050EB6
:1012B000066E020ECEEC0DF0920E0A6E060E0B6E4E
:1012C000D3EC0CF0000E236E2250D8B46AEF09F074
:1012D0006CEF09F072EF09F0020E946E000E226EB0
:1012E00076EF09F0000E946E010E226E010E026E72
:1012F000900E016EE6EC0FF0232A050E236483EFB7
:1013000009F085EF09F064EF09F0000E826E13C05A
:1013100094FF1200000E096E000E086E000E0E6E95
:1013200081CF0AF083CF0BF095CF0CF093CF0DF067
:101330000F0E9512F80E936E45EF0AF0000E0F6E29
:10134000010E0F24F66EF76A060EF7220800F5501C
:10135000FF0A811283B6AFEF09F0B1EF09F0C9EFD0
:1013600009F0000E026E140E016EE6EC0FF083B66B
:10137000BCEF09F0BEEF09F0C9EF09F083A6C3EF97
:1013800009F0C5EF09F0BEEF09F00F280E6E3BEF34
:101390000AF083B4CEEF09F0D0EF09F0E9EF09F0DD
:1013A000000E026E140E016EE6EC0FF083B4DBEF5C
:1013B00009F0DDEF09F0E9EF09F083A4E2EF09F0AD
:1013C000E4EF09F0DDEF09F00F50040F0E6E3BEF74
:1013D0000AF083B2EEEF09F0F0EF09F009EF0AF03E
:1013E000000E026E140E016EE6EC0FF083B2FBEFFE
:1013F00009F0FDEF09F009EF0AF083A202EF0AF00D
:1014000004EF0AF0FDEF09F00F50070F0E6E3BEFEF
:101410000AF083B00EEF0AF010EF0AF029EF0AF09D
:10142000000E026E140E016EE6EC0FF083B01BEF9F
:101430000AF01DEF0AF029EF0AF083A022EF0AF06C
:1014400024EF0AF01DEF0AF00F500A0F0E6E3BEF6B
:101450000AF0010E0F24F66EF76A060EF722080056
:10146000F55081160F2A020E0F6439EF0AF03BEF98
:101470000AF0A0EF09F0000E026E050E016EE6EC18
:101480000FF0050E0826000E09220650085C0750D2
:101490000958D8A04EEF0AF050EF0AF059EF0AF0C1
:1014A00006500710D8A457EF0AF059EF0AF061EF81
:1014B0000AF00E50D8B45FEF0AF061EF0AF09EEF29
:1014C00009F00E50D8A467EF0AF069EF0AF06AEF4E
:1014D0000AF00E680B0E0E18D8A471EF0AF073EF25
:1014E0000AF075EF0AF0000E0E6E0AC081FF0BC005
:1014F00083FF0CC095FF0DC093FF0E50120094CFD8
:1015000011F0000E136E010E156E010E1AEC10F0A4
:10151000010EB7EC0EF0050E066E010ECEEC0DF0CE
:10152000920E0A6E060E0B6ED3EC0CF0050E066ED4
:10153000020ECEEC0DF0780E0A6E060E0B6ED3EC9A
:101540000CF01550D8B4A7EF0AF0A9EF0AF0AFEFEE
:101550000AF0020E946E000E156EB3EF0AF0000E44
:10156000946E010E156E030E076EE80E066E8AEC81
:1015700009F0166E132A0C0E1618D8A4C2EF0AF042
:10158000C4EF0AF0C8EF0AF0010E126EDBEF0AF0AA
:101590000B0E1360CEEF0AF0D0EF0AF0D9EF0AF08D
:1015A0000A0E1618D8A4D7EF0AF0D9EF0AF0A1EF67
:1015B0000AF0000E126E000E946E1250D8B4E3EFD3
:1015C0000AF0E5EF0AF02FEF0BF0010E1AEC10F025
:1015D000010EB7EC0EF0050E066E010ECEEC0DF00E
:1015E000920E0A6E060E0B6ED3EC0CF0050E066E14
:1015F000020ECEEC0DF0810E0A6E060E0B6ED3ECD1
:101600000CF0000E076E000E066E8AEC09F0166EE6
:101610000A0E1618D8A40FEF0BF011EF0BF001EF24
:101620000BF0010E1AEC10F0010EB7EC0EF0050EE7
:10163000066E010ECEEC0DF0AA0E0A6E060E0B6EB3
:10164000D3EC0CF0050E066E020ECEEC0DF0920EF1
:101650000A6E060E0B6ED3EC0CF04BEF0BF0010E86
:101660001AEC10F0010EB7EC0EF0050E066E010E2E
:10167000CEEC0DF0920E0A6E060E0B6ED3EC0CF053
:10168000050E066E020ECEEC0DF06F0E0A6E060E03
:101690000B6ED3EC0CF0000E146E1550D8B453EF53
:1016A0000BF055EF0BF05BEF0BF0020E946E000E9B
:1016B000156E5FEF0BF0000E946E010E156E010EAD
:1016C000026E900E016EE6EC0FF0142A050E146403
:1016D0006CEF0BF06EEF0BF04DEF0BF011C094FFC1
:1016E0001200C30E926E030E936E010E946E000EE6
:1016F000956E000E966E060EC16EB8EC0FF00C0ED5
:101700001AEC10F020EEC2F010EE80F01F0EDBCFCE
:10171000E3FFE806FCE221EE41F010EEA0F01F0E20
:10172000DBCFE3FFE806FCE2400E1AEC10F0000EFF
:101730000001C16F800EC125D96EDA6A000EDA226F
:10174000DF5005EC10F00001C12B1F0EC165ABEF9F
:101750000BF0ADEF0BF09AEF0BF0600E1AEC10F0FF
:10176000000E0001C16FA00EC125D96EDA6A000E0D
:10177000DA22DF5005EC10F00001C12B1F0EC1650D
:10178000C4EF0BF0C6EF0BF0B3EF0BF05AEC0DF01B
:10179000010E1AEC10F0040E066E010ECEEC0DF0E8
:1017A000700E0A6E000E0B6ED3EC0CF0050E066E7A
:1017B000020ECEEC0DF0000E0001C16FE20EC1254D
:1017C000D96EDA6A000EDA22DF5005EC10F0000163
:1017D000C12B040EC165EFEF0BF0F1EF0BF0DEEF64
:1017E0000BF00B0E076EB80E066E8AEC09F00001C6
:1017F000C06F000EC16FC151C019D8A402EF0CF028
:1018000004EF0CF008EF0CF042EC0CF011EF0CF0D0
:10181000C12B0C0EC1650FEF0CF011EF0CF0FBEFBC
:101820000BF08404D8A417EF0CF019EF0CF0C6EFFE
:101830000BF023EF0CF07FEC0AF039EF0CF025EC05
:101840000EF039EF0CF00001EC516D6E6E6A6E50C7
:10185000000AD8B42EEF0CF039EF0CF06D50010AED
:10186000D8B41BEF0CF0030AD8B41FEF0CF039EF1B
:101870000CF0000E0001EC6F000E846EC6EF0BF052
:1018800000EF00F0010E1AEC10F0A20E0A6E060E28
:101890000B6ED3EC0CF0000E066E010ECEEC0DF0CC
:1018A000640E0A6E060E0B6ED3EC0CF0000E066E84
:1018B000020ECEEC0DF03C0E0A6E060E0B6ED3EC53
:1018C0000CF0000E066E030ECEEC0DF02B0E0A6E21
:1018D000060E0B6ED3EC0CF0000E6B6E030E076E53
:1018E000E80E066E8AEC09F06C6E93EF0CF0ADEC2E
:1018F00007F0010E6F6EB0EF0CF059EC03F079EFCA
:101900000CF0010E846E010E0001EC6F010E6F6E83
:10191000B0EF0CF0010E846E020E0001EC6F010EB0
:101920006F6EB0EF0CF06C50696E6A6A6A50000A14
:10193000D8B49DEF0CF0B0EF0CF06950010AD8B4A8
:1019400077EF0CF0030AD8B47DEF0CF0010AD8B49D
:1019500081EF0CF0070AD8B48AEF0CF0B0EF0CF06E
:101960000A0E6C18D8B4B7EF0CF0B9EF0CF0C1EF59
:101970000CF00A0E6B64BFEF0CF0C1EF0CF0C3EF7C
:101980000CF0010E6F6E6F50D8B4C9EF0CF0CBEFB6
:101990000CF0CFEF0CF0000E6F6ED2EF0CF06B2A54
:1019A0006EEF0CF01200000E106E000E0F6E000EA7
:1019B0000E6E3BEF0DF010500A240C6E000E0B2043
:1019C0000D6E0CC0F6FF0DC0F7FFF86A050EF76448
:1019D00003D00800F55005D0F6CFE9FFF7CFEAFFB6
:1019E000EF5005EC10F0102A10500A240C6E000E77
:1019F0000B200D6E0CC0F6FF0DC0F7FFF86A050E48
:101A0000F76403D00800F55005D0F6CFE9FFF7CF13
:101A1000EAFFEF50200AD8B410EF0DF012EF0DF0EE
:101A20003BEF0DF00FC001F0026AFF0E046EF00EE6
:101A3000036E2FEC10F010500C6E0D6A01500C2646
:101A400002500D220E500C5E000E0D5A0DBE32EFEC
:101A50000DF00D5009E1100E0C5CD8A032EF0DF026
:101A600034EF0DF03BEF0DF00F2A0E2A000E066E3C
:101A70000F50CEEC0DF010500A240C6E000E0B200F
:101A80000D6E0CC0F6FF0DC0F7FFF86A050EF76487
:101A900003D00800F55005D0F6CFE9FFF7CFEAFFF5
:101AA000EF500009D8A457EF0DF059EF0DF0DBEF20
:101AB0000CF012005AEC10F0D00E8AEC0FF0000E71
:101AC0008AEC0FF05AEC10F0D10E8AEC0FF0010EF8
:101AD00076EC0EF07F0B0A6E3A0E0001E76F0A50AB
:101AE00062EC10F00001E86F0A5068EC10F00001A1
:101AF000E96F000EEA6F010E76EC0EF07F0B0A6EB6
:101B00003A0E0001E46F0A5062EC10F00001E56F3C
:101B10000A5068EC10F00001E66F010E76EC0EF052
:101B20003F0B0A6E0A5062EC10F00001E26F0A509F
:101B300068EC10F00001E36F010E76EC0EF0010E80
:101B400076EC0EF03F0B0A6E0A5062EC10F0706EED
:101B50000A5068EC10F0716E010E76EC0EF01F0B5F
:101B60000A6E2F0E726E0A5062EC10F0736E0A50FD
:101B700068EC10F0746E000E76EC0EF00A6E2F0E0C
:101B8000756E0A5062EC10F0766E0A5068EC10F038
:101B9000776E000E786E52EC10F01200096E09504C
:101BA000D8A4D5EF0DF0D7EF0DF0DFEF0DF0800EDC
:101BB0000624076E086A000E082211EF0EF00904D1
:101BC000D8A4E5EF0DF0E7EF0DF0EFEF0DF0C00E4C
:101BD0000624076E086A000E082211EF0EF0020EAE
:101BE0000918D8A4F6EF0DF0F8EF0DF000EF0EF0A5
:101BF000900E0624076E086A000E082211EF0EF000
:101C0000030E0918D8A407EF0EF009EF0EF011EF3C
:101C10000EF0D00E0624076E086A000E082211EF9F
:101C20000EF0848207506DEC10F08494000E026E6A
:101C3000030E016EE6EC0FF08492000E026E030EAE
:101C4000016EE6EC0FF084821200010E1AEC10F027
:101C5000020EB7EC0EF0050E066E010ECEEC0DF086
:101C6000330E0A6E060E0B6ED3EC0CF0050E066EEC
:101C7000020ECEEC0DF0780E0A6E060E0B6ED3EC53
:101C80000CF0000E076E000E066E8AEC09F0116E65
:101C90000C0E1118D8A44FEF0EF051EF0EF041EFDB
:101CA0000EF0010E1AEC10F0050E0A6E060E0B6E09
:101CB000D3EC0CF0000E066E030ECEEC0DF04A0EC7
:101CC0000A6E060E0B6ED3EC0CF0000E076E000EC3
:101CD000066E8AEC09F0116E0A0E1118D8A473EF83
:101CE0000EF075EF0EF065EF0EF01200076E000EAD
:101CF000086E829694888288000E096E82865AEC5D
:101D00000FF009500708056E82B889EF0EF08DEFCD
:101D10000EF0066A062A8EEF0EF0066A052A93EF89
:101D20000EF0D8900636052E91EF0EF006500812F0
:101D30008296092A070E0964A0EF0EF0A2EF0EF0BA
:101D40007EEF0EF094980750D8B4A9EF0EF0ABEFE9
:101D50000EF0AEEF0EF08298AFEF0EF082885AECE4
:101D60000FF082865AEC0FF08296085012000A6E2D
:101D70000A04D8A4BEEF0EF0C0EF0EF0D8EF0EF0BC
:101D8000000E066E010ECEEC0DF0000E05EC10F00C
:101D9000010E05EC10F0000E066E020ECEEC0DF0FA
:101DA000020E05EC10F0030E05EC10F0F7EF0EF04C
:101DB000020E0A18D8A4DFEF0EF0E1EF0EF0F7EFF5
:101DC0000EF0000E066E010ECEEC0DF0040E05ECCA
:101DD00010F0050E05EC10F0000E066E020ECEECB3
:101DE0000DF0060E05EC10F0070E05EC10F01200D9
:101DF000520EF66E1E0EF76E000EF86E01EE00F03B
:101E000010EE61F00900F5CFEEFFE550E150FAE188
:101E1000840EF66E200EF76E000EF86E00EEC2F025
:101E200010EE20F00900F5CFEEFFE550E150FAE1A9
:101E300000EEE2F00B0EEE6AE806FDE100EE6FF058
:101E40000B0EEE6AE806FDE1000EF86E000171EF80
:101E50000BF031616263414243326465664445463A
:101E600033676869474849346A6B6C4A4B4C356D37
:101E70006E6F4D4E4F3670717273505152533774AE
:101E80007576545556387778797A5758595A392093
:101E9000232A3000000000001F181400000000007A
:101EA0001F0305121110101F000000091101011F6E
:031EB0000000002F
:101EB400000E026E000E016E000E036E280E036407
:101EC40066EF0FF068EF0FF06AEF0FF07CEF0FF0A2
:101ED400000E046E020E046472EF0FF074EF0FF044
:101EE40076EF0FF079EF0FF0042A6CEF0FF0032A6E
:101EF40060EF0FF0014A022A025009E1050E015C6D
:101F0400D8A087EF0FF089EF0FF05EEF0FF012000B
:101F1400076E8296000E086E08500708056E07C00B
:101F240006F0052A98EF0FF0D8900632052E96EFAA
:101F34000FF0010E0616063A82500618EF0B06182B
:101F4400826E82865AEC0FF08296082A070E086485
:101F5400AEEF0FF0B0EF0FF08EEF0FF082885AEC77
:101F64000FF082865AEC0FF08296120084928494C9
:101F7400000E026E140E016EE6EC0FF08482380E31
:101F84001AEC10F0000E026E050E016EE6EC0FF076
:101F9400380E1AEC10F0000E026E010E016EE6EC23
:101FA4000FF0380E1AEC10F0080E1AEC10F00F0EA9
:101FB4001AEC10F0010E1AEC10F0380E1AEC10F0B6
:101FC400800E1AEC10F01200000E046E000E036E68
:101FD400F9EF0FF0000E056E052AC70E0564F5EF44
:101FE4000FF0F7EF0FF0EEEF0FF0034A042A015061
:101FF400035C02500458D8A002EF10F004EF10F074
:10200400ECEF0FF01200066E848206506DEC10F0B7
:102014008484000E026E030E016EE6EC0FF08492CF
:10202400000E026E030E016EE6EC0FF084821200C5
:10203400066E848206506DEC10F08494000E026EDD
:10204400030E016EE6EC0FF08492000E026E030E96
:10205400016EE6EC0FF08482120001500302F3CF0C
:1020640005F0F4CF06F001500402F35006260250A6
:102074000302F350062605C001F006C002F0120068
:102084000000070F0F0F0E0E0000001010000000DC
:102094000607030100000000060F1F1F1E000000BA
:1020A400828682985AEC0FF082885AEC0FF0120064
:1020B400828682885AEC0FF082985AEC0FF0120054
:1020C400016E01380F0B0F0B300F1200016E01501F
:0E20D4000F0B300F1200016E01C083FF1200CF
:020000040020DA
:08000000FFFFFFFFFFFFFFFF00
:020000040030CA
:0E000000FF027100FF8380FF0FC00FE00F4072
:00000001FF
